{
  "contractName": "Shepherd",
  "abi": [
    {
      "inputs": [],
      "stateMutability": "nonpayable",
      "type": "constructor"
    },
    {
      "anonymous": false,
      "inputs": [
        {
          "indexed": true,
          "internalType": "address",
          "name": "account",
          "type": "address"
        },
        {
          "indexed": true,
          "internalType": "address",
          "name": "operator",
          "type": "address"
        },
        {
          "indexed": false,
          "internalType": "bool",
          "name": "approved",
          "type": "bool"
        }
      ],
      "name": "ApprovalForAll",
      "type": "event"
    },
    {
      "anonymous": false,
      "inputs": [
        {
          "indexed": true,
          "internalType": "address",
          "name": "previousOwner",
          "type": "address"
        },
        {
          "indexed": true,
          "internalType": "address",
          "name": "newOwner",
          "type": "address"
        }
      ],
      "name": "OwnershipTransferred",
      "type": "event"
    },
    {
      "anonymous": false,
      "inputs": [
        {
          "indexed": true,
          "internalType": "address",
          "name": "operator",
          "type": "address"
        },
        {
          "indexed": true,
          "internalType": "address",
          "name": "from",
          "type": "address"
        },
        {
          "indexed": true,
          "internalType": "address",
          "name": "to",
          "type": "address"
        },
        {
          "indexed": false,
          "internalType": "uint256[]",
          "name": "ids",
          "type": "uint256[]"
        },
        {
          "indexed": false,
          "internalType": "uint256[]",
          "name": "values",
          "type": "uint256[]"
        }
      ],
      "name": "TransferBatch",
      "type": "event"
    },
    {
      "anonymous": false,
      "inputs": [
        {
          "indexed": true,
          "internalType": "address",
          "name": "operator",
          "type": "address"
        },
        {
          "indexed": true,
          "internalType": "address",
          "name": "from",
          "type": "address"
        },
        {
          "indexed": true,
          "internalType": "address",
          "name": "to",
          "type": "address"
        },
        {
          "indexed": false,
          "internalType": "uint256",
          "name": "id",
          "type": "uint256"
        },
        {
          "indexed": false,
          "internalType": "uint256",
          "name": "value",
          "type": "uint256"
        }
      ],
      "name": "TransferSingle",
      "type": "event"
    },
    {
      "anonymous": false,
      "inputs": [
        {
          "indexed": false,
          "internalType": "string",
          "name": "value",
          "type": "string"
        },
        {
          "indexed": true,
          "internalType": "uint256",
          "name": "id",
          "type": "uint256"
        }
      ],
      "name": "URI",
      "type": "event"
    },
    {
      "inputs": [
        {
          "internalType": "address",
          "name": "account",
          "type": "address"
        },
        {
          "internalType": "uint256",
          "name": "id",
          "type": "uint256"
        }
      ],
      "name": "balanceOf",
      "outputs": [
        {
          "internalType": "uint256",
          "name": "",
          "type": "uint256"
        }
      ],
      "stateMutability": "view",
      "type": "function",
      "constant": true
    },
    {
      "inputs": [
        {
          "internalType": "address[]",
          "name": "accounts",
          "type": "address[]"
        },
        {
          "internalType": "uint256[]",
          "name": "ids",
          "type": "uint256[]"
        }
      ],
      "name": "balanceOfBatch",
      "outputs": [
        {
          "internalType": "uint256[]",
          "name": "",
          "type": "uint256[]"
        }
      ],
      "stateMutability": "view",
      "type": "function",
      "constant": true
    },
    {
      "inputs": [
        {
          "internalType": "address",
          "name": "account",
          "type": "address"
        },
        {
          "internalType": "address",
          "name": "operator",
          "type": "address"
        }
      ],
      "name": "isApprovedForAll",
      "outputs": [
        {
          "internalType": "bool",
          "name": "",
          "type": "bool"
        }
      ],
      "stateMutability": "view",
      "type": "function",
      "constant": true
    },
    {
      "inputs": [],
      "name": "owner",
      "outputs": [
        {
          "internalType": "address",
          "name": "",
          "type": "address"
        }
      ],
      "stateMutability": "view",
      "type": "function",
      "constant": true
    },
    {
      "inputs": [],
      "name": "renounceOwnership",
      "outputs": [],
      "stateMutability": "nonpayable",
      "type": "function"
    },
    {
      "inputs": [
        {
          "internalType": "address",
          "name": "from",
          "type": "address"
        },
        {
          "internalType": "address",
          "name": "to",
          "type": "address"
        },
        {
          "internalType": "uint256[]",
          "name": "ids",
          "type": "uint256[]"
        },
        {
          "internalType": "uint256[]",
          "name": "amounts",
          "type": "uint256[]"
        },
        {
          "internalType": "bytes",
          "name": "data",
          "type": "bytes"
        }
      ],
      "name": "safeBatchTransferFrom",
      "outputs": [],
      "stateMutability": "nonpayable",
      "type": "function"
    },
    {
      "inputs": [
        {
          "internalType": "address",
          "name": "from",
          "type": "address"
        },
        {
          "internalType": "address",
          "name": "to",
          "type": "address"
        },
        {
          "internalType": "uint256",
          "name": "id",
          "type": "uint256"
        },
        {
          "internalType": "uint256",
          "name": "amount",
          "type": "uint256"
        },
        {
          "internalType": "bytes",
          "name": "data",
          "type": "bytes"
        }
      ],
      "name": "safeTransferFrom",
      "outputs": [],
      "stateMutability": "nonpayable",
      "type": "function"
    },
    {
      "inputs": [],
      "name": "sendSteel",
      "outputs": [
        {
          "internalType": "uint256",
          "name": "",
          "type": "uint256"
        }
      ],
      "stateMutability": "view",
      "type": "function",
      "constant": true
    },
    {
      "inputs": [
        {
          "internalType": "address",
          "name": "operator",
          "type": "address"
        },
        {
          "internalType": "bool",
          "name": "approved",
          "type": "bool"
        }
      ],
      "name": "setApprovalForAll",
      "outputs": [],
      "stateMutability": "nonpayable",
      "type": "function"
    },
    {
      "inputs": [
        {
          "internalType": "bytes4",
          "name": "interfaceId",
          "type": "bytes4"
        }
      ],
      "name": "supportsInterface",
      "outputs": [
        {
          "internalType": "bool",
          "name": "",
          "type": "bool"
        }
      ],
      "stateMutability": "view",
      "type": "function",
      "constant": true
    },
    {
      "inputs": [],
      "name": "takeSteel",
      "outputs": [
        {
          "internalType": "uint256",
          "name": "",
          "type": "uint256"
        }
      ],
      "stateMutability": "view",
      "type": "function",
      "constant": true
    },
    {
      "inputs": [
        {
          "internalType": "address",
          "name": "newOwner",
          "type": "address"
        }
      ],
      "name": "transferOwnership",
      "outputs": [],
      "stateMutability": "nonpayable",
      "type": "function"
    },
    {
      "inputs": [
        {
          "internalType": "uint256",
          "name": "",
          "type": "uint256"
        }
      ],
      "name": "uri",
      "outputs": [
        {
          "internalType": "string",
          "name": "",
          "type": "string"
        }
      ],
      "stateMutability": "view",
      "type": "function",
      "constant": true
    }
  ],
  "bytecode": "0x60806040523480156200001157600080fd5b50604051806020016040528060008152506200003381620000bc60201b60201c565b506200005462000048620000d160201b60201c565b620000d960201b60201c565b620000853360006c0c9f2c9cd04674edea40000000604051806020016040528060008152506200019f60201b60201c565b620000b63360016c0c9f2c9cd04674edea40000000604051806020016040528060008152506200019f60201b60201c565b62000f8d565b8060029081620000cd9190620008ad565b5050565b600033905090565b6000600360009054906101000a900473ffffffffffffffffffffffffffffffffffffffff16905081600360006101000a81548173ffffffffffffffffffffffffffffffffffffffff021916908373ffffffffffffffffffffffffffffffffffffffff1602179055508173ffffffffffffffffffffffffffffffffffffffff168173ffffffffffffffffffffffffffffffffffffffff167f8be0079c531659141344cd1fd0a4f28419497f9722a3daafe3b4186f6b6457e060405160405180910390a35050565b600073ffffffffffffffffffffffffffffffffffffffff168473ffffffffffffffffffffffffffffffffffffffff160362000211576040517f08c379a0000000000000000000000000000000000000000000000000000000008152600401620002089062000a1b565b60405180910390fd5b600062000223620000d160201b60201c565b9050600062000238856200038660201b60201c565b905060006200024d856200038660201b60201c565b905062000266836000898585896200040760201b60201c565b8460008088815260200190815260200160002060008973ffffffffffffffffffffffffffffffffffffffff1673ffffffffffffffffffffffffffffffffffffffff1681526020019081526020016000206000828254620002c7919062000a6c565b925050819055508673ffffffffffffffffffffffffffffffffffffffff16600073ffffffffffffffffffffffffffffffffffffffff168473ffffffffffffffffffffffffffffffffffffffff167fc3d58168c5ae7397731d063d5bbf3d657854427343f4c083240f7aacaa2d0f6289896040516200034792919062000ab8565b60405180910390a462000366836000898585896200040f60201b60201c565b6200037d836000898989896200041760201b60201c565b50505050505050565b60606000600167ffffffffffffffff811115620003a857620003a76200063e565b5b604051908082528060200260200182016040528015620003d75781602001602082028036833780820191505090505b5090508281600081518110620003f257620003f162000ae5565b5b60200260200101818152505080915050919050565b505050505050565b505050505050565b620004438473ffffffffffffffffffffffffffffffffffffffff166200061060201b620008a51760201c565b1562000608578373ffffffffffffffffffffffffffffffffffffffff1663f23a6e6187878686866040518663ffffffff1660e01b81526004016200048c95949392919062000bf3565b6020604051808303816000875af1925050508015620004cb57506040513d601f19601f82011682018060405250810190620004c8919062000cc3565b60015b6200057c57620004da62000d02565b806308c379a0036200053d5750620004f162000d5d565b80620004fe57506200053f565b806040517f08c379a000000000000000000000000000000000000000000000000000000000815260040162000534919062000e39565b60405180910390fd5b505b6040517f08c379a0000000000000000000000000000000000000000000000000000000008152600401620005739062000ed3565b60405180910390fd5b63f23a6e6160e01b7bffffffffffffffffffffffffffffffffffffffffffffffffffffffff1916817bffffffffffffffffffffffffffffffffffffffffffffffffffffffff19161462000606576040517f08c379a0000000000000000000000000000000000000000000000000000000008152600401620005fd9062000f6b565b60405180910390fd5b505b505050505050565b6000808273ffffffffffffffffffffffffffffffffffffffff163b119050919050565b600081519050919050565b7f4e487b7100000000000000000000000000000000000000000000000000000000600052604160045260246000fd5b7f4e487b7100000000000000000000000000000000000000000000000000000000600052602260045260246000fd5b60006002820490506001821680620006b557607f821691505b602082108103620006cb57620006ca6200066d565b5b50919050565b60008190508160005260206000209050919050565b60006020601f8301049050919050565b600082821b905092915050565b600060088302620007357fffffffffffffffffffffffffffffffffffffffffffffffffffffffffffffffff82620006f6565b620007418683620006f6565b95508019841693508086168417925050509392505050565b6000819050919050565b6000819050919050565b60006200078e62000788620007828462000759565b62000763565b62000759565b9050919050565b6000819050919050565b620007aa836200076d565b620007c2620007b98262000795565b84845462000703565b825550505050565b600090565b620007d9620007ca565b620007e68184846200079f565b505050565b5b818110156200080e5762000802600082620007cf565b600181019050620007ec565b5050565b601f8211156200085d576200082781620006d1565b6200083284620006e6565b8101602085101562000842578190505b6200085a6200085185620006e6565b830182620007eb565b50505b505050565b600082821c905092915050565b6000620008826000198460080262000862565b1980831691505092915050565b60006200089d83836200086f565b9150826002028217905092915050565b620008b88262000633565b67ffffffffffffffff811115620008d457620008d36200063e565b5b620008e082546200069c565b620008ed82828562000812565b600060209050601f83116001811462000925576000841562000910578287015190505b6200091c85826200088f565b8655506200098c565b601f1984166200093586620006d1565b60005b828110156200095f5784890151825560018201915060208501945060208101905062000938565b868310156200097f57848901516200097b601f8916826200086f565b8355505b6001600288020188555050505b505050505050565b600082825260208201905092915050565b7f455243313135353a206d696e7420746f20746865207a65726f2061646472657360008201527f7300000000000000000000000000000000000000000000000000000000000000602082015250565b600062000a0360218362000994565b915062000a1082620009a5565b604082019050919050565b6000602082019050818103600083015262000a3681620009f4565b9050919050565b7f4e487b7100000000000000000000000000000000000000000000000000000000600052601160045260246000fd5b600062000a798262000759565b915062000a868362000759565b925082820190508082111562000aa15762000aa062000a3d565b5b92915050565b62000ab28162000759565b82525050565b600060408201905062000acf600083018562000aa7565b62000ade602083018462000aa7565b9392505050565b7f4e487b7100000000000000000000000000000000000000000000000000000000600052603260045260246000fd5b600073ffffffffffffffffffffffffffffffffffffffff82169050919050565b600062000b418262000b14565b9050919050565b62000b538162000b34565b82525050565b600081519050919050565b600082825260208201905092915050565b60005b8381101562000b9557808201518184015260208101905062000b78565b60008484015250505050565b6000601f19601f8301169050919050565b600062000bbf8262000b59565b62000bcb818562000b64565b935062000bdd81856020860162000b75565b62000be88162000ba1565b840191505092915050565b600060a08201905062000c0a600083018862000b48565b62000c19602083018762000b48565b62000c28604083018662000aa7565b62000c37606083018562000aa7565b818103608083015262000c4b818462000bb2565b90509695505050505050565b6000604051905090565b600080fd5b60007fffffffff0000000000000000000000000000000000000000000000000000000082169050919050565b62000c9d8162000c66565b811462000ca957600080fd5b50565b60008151905062000cbd8162000c92565b92915050565b60006020828403121562000cdc5762000cdb62000c61565b5b600062000cec8482850162000cac565b91505092915050565b60008160e01c9050919050565b600060033d111562000d245760046000803e62000d2160005162000cf5565b90505b90565b62000d328262000ba1565b810181811067ffffffffffffffff8211171562000d545762000d536200063e565b5b80604052505050565b600060443d1062000df55762000d7262000c57565b60043d036004823e80513d602482011167ffffffffffffffff8211171562000d9c57505062000df5565b808201805167ffffffffffffffff81111562000dbc575050505062000df5565b80602083010160043d03850181111562000ddb57505050505062000df5565b62000dec8260200185018662000d27565b82955050505050505b90565b600062000e058262000633565b62000e11818562000994565b935062000e2381856020860162000b75565b62000e2e8162000ba1565b840191505092915050565b6000602082019050818103600083015262000e55818462000df8565b905092915050565b7f455243313135353a207472616e7366657220746f206e6f6e2d4552433131353560008201527f526563656976657220696d706c656d656e746572000000000000000000000000602082015250565b600062000ebb60348362000994565b915062000ec88262000e5d565b604082019050919050565b6000602082019050818103600083015262000eee8162000eac565b9050919050565b7f455243313135353a204552433131353552656365697665722072656a6563746560008201527f6420746f6b656e73000000000000000000000000000000000000000000000000602082015250565b600062000f5360288362000994565b915062000f608262000ef5565b604082019050919050565b6000602082019050818103600083015262000f868162000f44565b9050919050565b6129138062000f9d6000396000f3fe608060405234801561001057600080fd5b50600436106100ce5760003560e01c80638da5cb5b1161008c578063e985e9c511610066578063e985e9c514610211578063edcaf0d414610241578063f242432a1461025f578063f2fde38b1461027b576100ce565b80638da5cb5b146101b9578063a22cb465146101d7578063b658ef13146101f3576100ce565b8062fdd58e146100d357806301ffc9a7146101035780630e89341c146101335780632eb2c2d6146101635780634e1273f41461017f578063715018a6146101af575b600080fd5b6100ed60048036038101906100e89190611686565b610297565b6040516100fa91906116d5565b60405180910390f35b61011d60048036038101906101189190611748565b61035f565b60405161012a9190611790565b60405180910390f35b61014d600480360381019061014891906117ab565b610441565b60405161015a9190611868565b60405180910390f35b61017d60048036038101906101789190611a87565b6104d5565b005b61019960048036038101906101949190611c19565b610576565b6040516101a69190611d4f565b60405180910390f35b6101b761068f565b005b6101c16106a3565b6040516101ce9190611d80565b60405180910390f35b6101f160048036038101906101ec9190611dc7565b6106cd565b005b6101fb6106e3565b60405161020891906116d5565b60405180910390f35b61022b60048036038101906102269190611e07565b6106e8565b6040516102389190611790565b60405180910390f35b61024961077c565b60405161025691906116d5565b60405180910390f35b61027960048036038101906102749190611e47565b610781565b005b61029560048036038101906102909190611ede565b610822565b005b60008073ffffffffffffffffffffffffffffffffffffffff168373ffffffffffffffffffffffffffffffffffffffff1603610307576040517f08c379a00000000000000000000000000000000000000000000000000000000081526004016102fe90611f7d565b60405180910390fd5b60008083815260200190815260200160002060008473ffffffffffffffffffffffffffffffffffffffff1673ffffffffffffffffffffffffffffffffffffffff16815260200190815260200160002054905092915050565b60007fd9b67a26000000000000000000000000000000000000000000000000000000007bffffffffffffffffffffffffffffffffffffffffffffffffffffffff1916827bffffffffffffffffffffffffffffffffffffffffffffffffffffffff1916148061042a57507f0e89341c000000000000000000000000000000000000000000000000000000007bffffffffffffffffffffffffffffffffffffffffffffffffffffffff1916827bffffffffffffffffffffffffffffffffffffffffffffffffffffffff1916145b8061043a5750610439826108c8565b5b9050919050565b60606002805461045090611fcc565b80601f016020809104026020016040519081016040528092919081815260200182805461047c90611fcc565b80156104c95780601f1061049e576101008083540402835291602001916104c9565b820191906000526020600020905b8154815290600101906020018083116104ac57829003601f168201915b50505050509050919050565b6104dd610932565b73ffffffffffffffffffffffffffffffffffffffff168573ffffffffffffffffffffffffffffffffffffffff16148061052357506105228561051d610932565b6106e8565b5b610562576040517f08c379a00000000000000000000000000000000000000000000000000000000081526004016105599061206f565b60405180910390fd5b61056f858585858561093a565b5050505050565b606081518351146105bc576040517f08c379a00000000000000000000000000000000000000000000000000000000081526004016105b390612101565b60405180910390fd5b6000835167ffffffffffffffff8111156105d9576105d861188f565b5b6040519080825280602002602001820160405280156106075781602001602082028036833780820191505090505b50905060005b84518110156106845761065485828151811061062c5761062b612121565b5b602002602001015185838151811061064757610646612121565b5b6020026020010151610297565b82828151811061066757610666612121565b5b6020026020010181815250508061067d9061217f565b905061060d565b508091505092915050565b610697610c5b565b6106a16000610cd9565b565b6000600360009054906101000a900473ffffffffffffffffffffffffffffffffffffffff16905090565b6106df6106d8610932565b8383610d9f565b5050565b600081565b6000600160008473ffffffffffffffffffffffffffffffffffffffff1673ffffffffffffffffffffffffffffffffffffffff16815260200190815260200160002060008373ffffffffffffffffffffffffffffffffffffffff1673ffffffffffffffffffffffffffffffffffffffff16815260200190815260200160002060009054906101000a900460ff16905092915050565b600181565b610789610932565b73ffffffffffffffffffffffffffffffffffffffff168573ffffffffffffffffffffffffffffffffffffffff1614806107cf57506107ce856107c9610932565b6106e8565b5b61080e576040517f08c379a00000000000000000000000000000000000000000000000000000000081526004016108059061206f565b60405180910390fd5b61081b8585858585610f0b565b5050505050565b61082a610c5b565b600073ffffffffffffffffffffffffffffffffffffffff168173ffffffffffffffffffffffffffffffffffffffff1603610899576040517f08c379a000000000000000000000000000000000000000000000000000000000815260040161089090612239565b60405180910390fd5b6108a281610cd9565b50565b6000808273ffffffffffffffffffffffffffffffffffffffff163b119050919050565b60007f01ffc9a7000000000000000000000000000000000000000000000000000000007bffffffffffffffffffffffffffffffffffffffffffffffffffffffff1916827bffffffffffffffffffffffffffffffffffffffffffffffffffffffff1916149050919050565b600033905090565b815183511461097e576040517f08c379a0000000000000000000000000000000000000000000000000000000008152600401610975906122cb565b60405180910390fd5b600073ffffffffffffffffffffffffffffffffffffffff168473ffffffffffffffffffffffffffffffffffffffff16036109ed576040517f08c379a00000000000000000000000000000000000000000000000000000000081526004016109e49061235d565b60405180910390fd5b60006109f7610932565b9050610a078187878787876111a6565b60005b8451811015610bb8576000858281518110610a2857610a27612121565b5b602002602001015190506000858381518110610a4757610a46612121565b5b60200260200101519050600080600084815260200190815260200160002060008b73ffffffffffffffffffffffffffffffffffffffff1673ffffffffffffffffffffffffffffffffffffffff16815260200190815260200160002054905081811015610ae8576040517f08c379a0000000000000000000000000000000000000000000000000000000008152600401610adf906123ef565b60405180910390fd5b81810360008085815260200190815260200160002060008c73ffffffffffffffffffffffffffffffffffffffff1673ffffffffffffffffffffffffffffffffffffffff168152602001908152602001600020819055508160008085815260200190815260200160002060008b73ffffffffffffffffffffffffffffffffffffffff1673ffffffffffffffffffffffffffffffffffffffff1681526020019081526020016000206000828254610b9d919061240f565b9250508190555050505080610bb19061217f565b9050610a0a565b508473ffffffffffffffffffffffffffffffffffffffff168673ffffffffffffffffffffffffffffffffffffffff168273ffffffffffffffffffffffffffffffffffffffff167f4a39dc06d4c0dbc64b70af90fd698a233a518aa5d07e595d983b8c0526c8f7fb8787604051610c2f929190612443565b60405180910390a4610c458187878787876111ae565b610c538187878787876111b6565b505050505050565b610c63610932565b73ffffffffffffffffffffffffffffffffffffffff16610c816106a3565b73ffffffffffffffffffffffffffffffffffffffff1614610cd7576040517f08c379a0000000000000000000000000000000000000000000000000000000008152600401610cce906124c6565b60405180910390fd5b565b6000600360009054906101000a900473ffffffffffffffffffffffffffffffffffffffff16905081600360006101000a81548173ffffffffffffffffffffffffffffffffffffffff021916908373ffffffffffffffffffffffffffffffffffffffff1602179055508173ffffffffffffffffffffffffffffffffffffffff168173ffffffffffffffffffffffffffffffffffffffff167f8be0079c531659141344cd1fd0a4f28419497f9722a3daafe3b4186f6b6457e060405160405180910390a35050565b8173ffffffffffffffffffffffffffffffffffffffff168373ffffffffffffffffffffffffffffffffffffffff1603610e0d576040517f08c379a0000000000000000000000000000000000000000000000000000000008152600401610e0490612558565b60405180910390fd5b80600160008573ffffffffffffffffffffffffffffffffffffffff1673ffffffffffffffffffffffffffffffffffffffff16815260200190815260200160002060008473ffffffffffffffffffffffffffffffffffffffff1673ffffffffffffffffffffffffffffffffffffffff16815260200190815260200160002060006101000a81548160ff0219169083151502179055508173ffffffffffffffffffffffffffffffffffffffff168373ffffffffffffffffffffffffffffffffffffffff167f17307eab39ab6107e8899845ad3d59bd9653f200f220920489ca2b5937696c3183604051610efe9190611790565b60405180910390a3505050565b600073ffffffffffffffffffffffffffffffffffffffff168473ffffffffffffffffffffffffffffffffffffffff1603610f7a576040517f08c379a0000000000000000000000000000000000000000000000000000000008152600401610f719061235d565b60405180910390fd5b6000610f84610932565b90506000610f918561138d565b90506000610f9e8561138d565b9050610fae8389898585896111a6565b600080600088815260200190815260200160002060008a73ffffffffffffffffffffffffffffffffffffffff1673ffffffffffffffffffffffffffffffffffffffff16815260200190815260200160002054905085811015611045576040517f08c379a000000000000000000000000000000000000000000000000000000000815260040161103c906123ef565b60405180910390fd5b85810360008089815260200190815260200160002060008b73ffffffffffffffffffffffffffffffffffffffff1673ffffffffffffffffffffffffffffffffffffffff168152602001908152602001600020819055508560008089815260200190815260200160002060008a73ffffffffffffffffffffffffffffffffffffffff1673ffffffffffffffffffffffffffffffffffffffff16815260200190815260200160002060008282546110fa919061240f565b925050819055508773ffffffffffffffffffffffffffffffffffffffff168973ffffffffffffffffffffffffffffffffffffffff168573ffffffffffffffffffffffffffffffffffffffff167fc3d58168c5ae7397731d063d5bbf3d657854427343f4c083240f7aacaa2d0f628a8a604051611177929190612578565b60405180910390a461118d848a8a86868a6111ae565b61119b848a8a8a8a8a611407565b505050505050505050565b505050505050565b505050505050565b6111d58473ffffffffffffffffffffffffffffffffffffffff166108a5565b15611385578373ffffffffffffffffffffffffffffffffffffffff1663bc197c8187878686866040518663ffffffff1660e01b815260040161121b9594939291906125f6565b6020604051808303816000875af192505050801561125757506040513d601f19601f820116820180604052508101906112549190612673565b60015b6112fc576112636126ad565b806308c379a0036112bf57506112776126cf565b8061128257506112c1565b806040517f08c379a00000000000000000000000000000000000000000000000000000000081526004016112b69190611868565b60405180910390fd5b505b6040517f08c379a00000000000000000000000000000000000000000000000000000000081526004016112f3906127d1565b60405180910390fd5b63bc197c8160e01b7bffffffffffffffffffffffffffffffffffffffffffffffffffffffff1916817bffffffffffffffffffffffffffffffffffffffffffffffffffffffff191614611383576040517f08c379a000000000000000000000000000000000000000000000000000000000815260040161137a90612863565b60405180910390fd5b505b505050505050565b60606000600167ffffffffffffffff8111156113ac576113ab61188f565b5b6040519080825280602002602001820160405280156113da5781602001602082028036833780820191505090505b50905082816000815181106113f2576113f1612121565b5b60200260200101818152505080915050919050565b6114268473ffffffffffffffffffffffffffffffffffffffff166108a5565b156115d6578373ffffffffffffffffffffffffffffffffffffffff1663f23a6e6187878686866040518663ffffffff1660e01b815260040161146c959493929190612883565b6020604051808303816000875af19250505080156114a857506040513d601f19601f820116820180604052508101906114a59190612673565b60015b61154d576114b46126ad565b806308c379a00361151057506114c86126cf565b806114d35750611512565b806040517f08c379a00000000000000000000000000000000000000000000000000000000081526004016115079190611868565b60405180910390fd5b505b6040517f08c379a0000000000000000000000000000000000000000000000000000000008152600401611544906127d1565b60405180910390fd5b63f23a6e6160e01b7bffffffffffffffffffffffffffffffffffffffffffffffffffffffff1916817bffffffffffffffffffffffffffffffffffffffffffffffffffffffff1916146115d4576040517f08c379a00000000000000000000000000000000000000000000000000000000081526004016115cb90612863565b60405180910390fd5b505b505050505050565b6000604051905090565b600080fd5b600080fd5b600073ffffffffffffffffffffffffffffffffffffffff82169050919050565b600061161d826115f2565b9050919050565b61162d81611612565b811461163857600080fd5b50565b60008135905061164a81611624565b92915050565b6000819050919050565b61166381611650565b811461166e57600080fd5b50565b6000813590506116808161165a565b92915050565b6000806040838503121561169d5761169c6115e8565b5b60006116ab8582860161163b565b92505060206116bc85828601611671565b9150509250929050565b6116cf81611650565b82525050565b60006020820190506116ea60008301846116c6565b92915050565b60007fffffffff0000000000000000000000000000000000000000000000000000000082169050919050565b611725816116f0565b811461173057600080fd5b50565b6000813590506117428161171c565b92915050565b60006020828403121561175e5761175d6115e8565b5b600061176c84828501611733565b91505092915050565b60008115159050919050565b61178a81611775565b82525050565b60006020820190506117a56000830184611781565b92915050565b6000602082840312156117c1576117c06115e8565b5b60006117cf84828501611671565b91505092915050565b600081519050919050565b600082825260208201905092915050565b60005b838110156118125780820151818401526020810190506117f7565b60008484015250505050565b6000601f19601f8301169050919050565b600061183a826117d8565b61184481856117e3565b93506118548185602086016117f4565b61185d8161181e565b840191505092915050565b60006020820190508181036000830152611882818461182f565b905092915050565b600080fd5b7f4e487b7100000000000000000000000000000000000000000000000000000000600052604160045260246000fd5b6118c78261181e565b810181811067ffffffffffffffff821117156118e6576118e561188f565b5b80604052505050565b60006118f96115de565b905061190582826118be565b919050565b600067ffffffffffffffff8211156119255761192461188f565b5b602082029050602081019050919050565b600080fd5b600061194e6119498461190a565b6118ef565b9050808382526020820190506020840283018581111561197157611970611936565b5b835b8181101561199a57806119868882611671565b845260208401935050602081019050611973565b5050509392505050565b600082601f8301126119b9576119b861188a565b5b81356119c984826020860161193b565b91505092915050565b600080fd5b600067ffffffffffffffff8211156119f2576119f161188f565b5b6119fb8261181e565b9050602081019050919050565b82818337600083830152505050565b6000611a2a611a25846119d7565b6118ef565b905082815260208101848484011115611a4657611a456119d2565b5b611a51848285611a08565b509392505050565b600082601f830112611a6e57611a6d61188a565b5b8135611a7e848260208601611a17565b91505092915050565b600080600080600060a08688031215611aa357611aa26115e8565b5b6000611ab18882890161163b565b9550506020611ac28882890161163b565b945050604086013567ffffffffffffffff811115611ae357611ae26115ed565b5b611aef888289016119a4565b935050606086013567ffffffffffffffff811115611b1057611b0f6115ed565b5b611b1c888289016119a4565b925050608086013567ffffffffffffffff811115611b3d57611b3c6115ed565b5b611b4988828901611a59565b9150509295509295909350565b600067ffffffffffffffff821115611b7157611b7061188f565b5b602082029050602081019050919050565b6000611b95611b9084611b56565b6118ef565b90508083825260208201905060208402830185811115611bb857611bb7611936565b5b835b81811015611be15780611bcd888261163b565b845260208401935050602081019050611bba565b5050509392505050565b600082601f830112611c0057611bff61188a565b5b8135611c10848260208601611b82565b91505092915050565b60008060408385031215611c3057611c2f6115e8565b5b600083013567ffffffffffffffff811115611c4e57611c4d6115ed565b5b611c5a85828601611beb565b925050602083013567ffffffffffffffff811115611c7b57611c7a6115ed565b5b611c87858286016119a4565b9150509250929050565b600081519050919050565b600082825260208201905092915050565b6000819050602082019050919050565b611cc681611650565b82525050565b6000611cd88383611cbd565b60208301905092915050565b6000602082019050919050565b6000611cfc82611c91565b611d068185611c9c565b9350611d1183611cad565b8060005b83811015611d42578151611d298882611ccc565b9750611d3483611ce4565b925050600181019050611d15565b5085935050505092915050565b60006020820190508181036000830152611d698184611cf1565b905092915050565b611d7a81611612565b82525050565b6000602082019050611d956000830184611d71565b92915050565b611da481611775565b8114611daf57600080fd5b50565b600081359050611dc181611d9b565b92915050565b60008060408385031215611dde57611ddd6115e8565b5b6000611dec8582860161163b565b9250506020611dfd85828601611db2565b9150509250929050565b60008060408385031215611e1e57611e1d6115e8565b5b6000611e2c8582860161163b565b9250506020611e3d8582860161163b565b9150509250929050565b600080600080600060a08688031215611e6357611e626115e8565b5b6000611e718882890161163b565b9550506020611e828882890161163b565b9450506040611e9388828901611671565b9350506060611ea488828901611671565b925050608086013567ffffffffffffffff811115611ec557611ec46115ed565b5b611ed188828901611a59565b9150509295509295909350565b600060208284031215611ef457611ef36115e8565b5b6000611f028482850161163b565b91505092915050565b7f455243313135353a2061646472657373207a65726f206973206e6f742061207660008201527f616c6964206f776e657200000000000000000000000000000000000000000000602082015250565b6000611f67602a836117e3565b9150611f7282611f0b565b604082019050919050565b60006020820190508181036000830152611f9681611f5a565b9050919050565b7f4e487b7100000000000000000000000000000000000000000000000000000000600052602260045260246000fd5b60006002820490506001821680611fe457607f821691505b602082108103611ff757611ff6611f9d565b5b50919050565b7f455243313135353a2063616c6c6572206973206e6f7420746f6b656e206f776e60008201527f6572206f7220617070726f766564000000000000000000000000000000000000602082015250565b6000612059602e836117e3565b915061206482611ffd565b604082019050919050565b600060208201905081810360008301526120888161204c565b9050919050565b7f455243313135353a206163636f756e747320616e6420696473206c656e67746860008201527f206d69736d617463680000000000000000000000000000000000000000000000602082015250565b60006120eb6029836117e3565b91506120f68261208f565b604082019050919050565b6000602082019050818103600083015261211a816120de565b9050919050565b7f4e487b7100000000000000000000000000000000000000000000000000000000600052603260045260246000fd5b7f4e487b7100000000000000000000000000000000000000000000000000000000600052601160045260246000fd5b600061218a82611650565b91507fffffffffffffffffffffffffffffffffffffffffffffffffffffffffffffffff82036121bc576121bb612150565b5b600182019050919050565b7f4f776e61626c653a206e6577206f776e657220697320746865207a65726f206160008201527f6464726573730000000000000000000000000000000000000000000000000000602082015250565b60006122236026836117e3565b915061222e826121c7565b604082019050919050565b6000602082019050818103600083015261225281612216565b9050919050565b7f455243313135353a2069647320616e6420616d6f756e7473206c656e6774682060008201527f6d69736d61746368000000000000000000000000000000000000000000000000602082015250565b60006122b56028836117e3565b91506122c082612259565b604082019050919050565b600060208201905081810360008301526122e4816122a8565b9050919050565b7f455243313135353a207472616e7366657220746f20746865207a65726f20616460008201527f6472657373000000000000000000000000000000000000000000000000000000602082015250565b60006123476025836117e3565b9150612352826122eb565b604082019050919050565b600060208201905081810360008301526123768161233a565b9050919050565b7f455243313135353a20696e73756666696369656e742062616c616e636520666f60008201527f72207472616e7366657200000000000000000000000000000000000000000000602082015250565b60006123d9602a836117e3565b91506123e48261237d565b604082019050919050565b60006020820190508181036000830152612408816123cc565b9050919050565b600061241a82611650565b915061242583611650565b925082820190508082111561243d5761243c612150565b5b92915050565b6000604082019050818103600083015261245d8185611cf1565b905081810360208301526124718184611cf1565b90509392505050565b7f4f776e61626c653a2063616c6c6572206973206e6f7420746865206f776e6572600082015250565b60006124b06020836117e3565b91506124bb8261247a565b602082019050919050565b600060208201905081810360008301526124df816124a3565b9050919050565b7f455243313135353a2073657474696e6720617070726f76616c2073746174757360008201527f20666f722073656c660000000000000000000000000000000000000000000000602082015250565b60006125426029836117e3565b915061254d826124e6565b604082019050919050565b6000602082019050818103600083015261257181612535565b9050919050565b600060408201905061258d60008301856116c6565b61259a60208301846116c6565b9392505050565b600081519050919050565b600082825260208201905092915050565b60006125c8826125a1565b6125d281856125ac565b93506125e28185602086016117f4565b6125eb8161181e565b840191505092915050565b600060a08201905061260b6000830188611d71565b6126186020830187611d71565b818103604083015261262a8186611cf1565b9050818103606083015261263e8185611cf1565b9050818103608083015261265281846125bd565b90509695505050505050565b60008151905061266d8161171c565b92915050565b600060208284031215612689576126886115e8565b5b60006126978482850161265e565b91505092915050565b60008160e01c9050919050565b600060033d11156126cc5760046000803e6126c96000516126a0565b90505b90565b600060443d1061275c576126e16115de565b60043d036004823e80513d602482011167ffffffffffffffff8211171561270957505061275c565b808201805167ffffffffffffffff811115612727575050505061275c565b80602083010160043d03850181111561274457505050505061275c565b612753826020018501866118be565b82955050505050505b90565b7f455243313135353a207472616e7366657220746f206e6f6e2d4552433131353560008201527f526563656976657220696d706c656d656e746572000000000000000000000000602082015250565b60006127bb6034836117e3565b91506127c68261275f565b604082019050919050565b600060208201905081810360008301526127ea816127ae565b9050919050565b7f455243313135353a204552433131353552656365697665722072656a6563746560008201527f6420746f6b656e73000000000000000000000000000000000000000000000000602082015250565b600061284d6028836117e3565b9150612858826127f1565b604082019050919050565b6000602082019050818103600083015261287c81612840565b9050919050565b600060a0820190506128986000830188611d71565b6128a56020830187611d71565b6128b260408301866116c6565b6128bf60608301856116c6565b81810360808301526128d181846125bd565b9050969550505050505056fea2646970667358221220d8d48cc967c235a600240c1da47e236c52e13129052c9596a8e0a87076f4ec5164736f6c63430008110033",
  "immutableReferences": {},
  "source": "// SPDX-License-Identifier: MIT\npragma solidity ^0.8.4;\n\nimport \"@openzeppelin/contracts/token/ERC1155/ERC1155.sol\";\nimport \"@openzeppelin/contracts/access/Ownable.sol\";\n\ncontract Shepherd is ERC1155, Ownable {\n    uint256 public constant sendSteel = 0;\n    uint256 public constant takeSteel = 1;\n\n    constructor() public ERC1155(\"\") {\n        _mint(msg.sender, sendSteel, 10**30, \"\");\n        _mint(msg.sender, takeSteel, 10**30, \"\");\n    }\n}\n",
  "sourcePath": "/home/yeonjae/Desktop/codestates/BEB-06-STEEL-TRACKER/contract/contracts/Shepherd.sol",
  "compiler": {
    "name": "solc",
    "version": "0.8.17+commit.8df45f5f.Emscripten.clang"
  },
  "schemaVersion": "3.4.10",
  "updatedAt": "2022-11-30T11:16:56.365Z",
  "networkType": "ethereum",
  "devdoc": {
    "kind": "dev",
    "methods": {
      "balanceOf(address,uint256)": {
        "details": "See {IERC1155-balanceOf}. Requirements: - `account` cannot be the zero address."
      },
      "balanceOfBatch(address[],uint256[])": {
        "details": "See {IERC1155-balanceOfBatch}. Requirements: - `accounts` and `ids` must have the same length."
      },
      "isApprovedForAll(address,address)": {
        "details": "See {IERC1155-isApprovedForAll}."
      },
      "owner()": {
        "details": "Returns the address of the current owner."
      },
      "renounceOwnership()": {
        "details": "Leaves the contract without owner. It will not be possible to call `onlyOwner` functions anymore. Can only be called by the current owner. NOTE: Renouncing ownership will leave the contract without an owner, thereby removing any functionality that is only available to the owner."
      },
      "safeBatchTransferFrom(address,address,uint256[],uint256[],bytes)": {
        "details": "See {IERC1155-safeBatchTransferFrom}."
      },
      "safeTransferFrom(address,address,uint256,uint256,bytes)": {
        "details": "See {IERC1155-safeTransferFrom}."
      },
      "setApprovalForAll(address,bool)": {
        "details": "See {IERC1155-setApprovalForAll}."
      },
      "supportsInterface(bytes4)": {
        "details": "See {IERC165-supportsInterface}."
      },
      "transferOwnership(address)": {
        "details": "Transfers ownership of the contract to a new account (`newOwner`). Can only be called by the current owner."
      },
      "uri(uint256)": {
        "details": "See {IERC1155MetadataURI-uri}. This implementation returns the same URI for *all* token types. It relies on the token type ID substitution mechanism https://eips.ethereum.org/EIPS/eip-1155#metadata[defined in the EIP]. Clients calling this function must replace the `\\{id\\}` substring with the actual token type ID."
      }
    },
    "version": 1
  },
  "userdoc": {
    "kind": "user",
    "methods": {},
    "version": 1
  }
}