{
  "contractName": "Shepherd",
  "abi": [
    {
      "inputs": [],
      "stateMutability": "nonpayable",
      "type": "constructor"
    },
    {
      "anonymous": false,
      "inputs": [
        {
          "indexed": true,
          "internalType": "address",
          "name": "account",
          "type": "address"
        },
        {
          "indexed": true,
          "internalType": "address",
          "name": "operator",
          "type": "address"
        },
        {
          "indexed": false,
          "internalType": "bool",
          "name": "approved",
          "type": "bool"
        }
      ],
      "name": "ApprovalForAll",
      "type": "event"
    },
    {
      "anonymous": false,
      "inputs": [
        {
          "indexed": true,
          "internalType": "address",
          "name": "operator",
          "type": "address"
        },
        {
          "indexed": true,
          "internalType": "address",
          "name": "from",
          "type": "address"
        },
        {
          "indexed": true,
          "internalType": "address",
          "name": "to",
          "type": "address"
        },
        {
          "indexed": false,
          "internalType": "uint256[]",
          "name": "ids",
          "type": "uint256[]"
        },
        {
          "indexed": false,
          "internalType": "uint256[]",
          "name": "values",
          "type": "uint256[]"
        }
      ],
      "name": "TransferBatch",
      "type": "event"
    },
    {
      "anonymous": false,
      "inputs": [
        {
          "indexed": true,
          "internalType": "address",
          "name": "operator",
          "type": "address"
        },
        {
          "indexed": true,
          "internalType": "address",
          "name": "from",
          "type": "address"
        },
        {
          "indexed": true,
          "internalType": "address",
          "name": "to",
          "type": "address"
        },
        {
          "indexed": false,
          "internalType": "uint256",
          "name": "id",
          "type": "uint256"
        },
        {
          "indexed": false,
          "internalType": "uint256",
          "name": "value",
          "type": "uint256"
        }
      ],
      "name": "TransferSingle",
      "type": "event"
    },
    {
      "anonymous": false,
      "inputs": [
        {
          "indexed": false,
          "internalType": "string",
          "name": "value",
          "type": "string"
        },
        {
          "indexed": true,
          "internalType": "uint256",
          "name": "id",
          "type": "uint256"
        }
      ],
      "name": "URI",
      "type": "event"
    },
    {
      "inputs": [
        {
          "internalType": "address",
          "name": "account",
          "type": "address"
        },
        {
          "internalType": "uint256",
          "name": "id",
          "type": "uint256"
        }
      ],
      "name": "balanceOf",
      "outputs": [
        {
          "internalType": "uint256",
          "name": "",
          "type": "uint256"
        }
      ],
      "stateMutability": "view",
      "type": "function",
      "constant": true
    },
    {
      "inputs": [
        {
          "internalType": "address[]",
          "name": "accounts",
          "type": "address[]"
        },
        {
          "internalType": "uint256[]",
          "name": "ids",
          "type": "uint256[]"
        }
      ],
      "name": "balanceOfBatch",
      "outputs": [
        {
          "internalType": "uint256[]",
          "name": "",
          "type": "uint256[]"
        }
      ],
      "stateMutability": "view",
      "type": "function",
      "constant": true
    },
    {
      "inputs": [
        {
          "internalType": "address",
          "name": "account",
          "type": "address"
        },
        {
          "internalType": "address",
          "name": "operator",
          "type": "address"
        }
      ],
      "name": "isApprovedForAll",
      "outputs": [
        {
          "internalType": "bool",
          "name": "",
          "type": "bool"
        }
      ],
      "stateMutability": "view",
      "type": "function",
      "constant": true
    },
    {
      "inputs": [
        {
          "internalType": "address",
          "name": "from",
          "type": "address"
        },
        {
          "internalType": "address",
          "name": "to",
          "type": "address"
        },
        {
          "internalType": "uint256[]",
          "name": "ids",
          "type": "uint256[]"
        },
        {
          "internalType": "uint256[]",
          "name": "amounts",
          "type": "uint256[]"
        },
        {
          "internalType": "bytes",
          "name": "data",
          "type": "bytes"
        }
      ],
      "name": "safeBatchTransferFrom",
      "outputs": [],
      "stateMutability": "nonpayable",
      "type": "function"
    },
    {
      "inputs": [
        {
          "internalType": "address",
          "name": "from",
          "type": "address"
        },
        {
          "internalType": "address",
          "name": "to",
          "type": "address"
        },
        {
          "internalType": "uint256",
          "name": "id",
          "type": "uint256"
        },
        {
          "internalType": "uint256",
          "name": "amount",
          "type": "uint256"
        },
        {
          "internalType": "bytes",
          "name": "data",
          "type": "bytes"
        }
      ],
      "name": "safeTransferFrom",
      "outputs": [],
      "stateMutability": "nonpayable",
      "type": "function"
    },
    {
      "inputs": [],
      "name": "sendSteel",
      "outputs": [
        {
          "internalType": "uint256",
          "name": "",
          "type": "uint256"
        }
      ],
      "stateMutability": "view",
      "type": "function",
      "constant": true
    },
    {
      "inputs": [
        {
          "internalType": "address",
          "name": "operator",
          "type": "address"
        },
        {
          "internalType": "bool",
          "name": "approved",
          "type": "bool"
        }
      ],
      "name": "setApprovalForAll",
      "outputs": [],
      "stateMutability": "nonpayable",
      "type": "function"
    },
    {
      "inputs": [
        {
          "internalType": "bytes4",
          "name": "interfaceId",
          "type": "bytes4"
        }
      ],
      "name": "supportsInterface",
      "outputs": [
        {
          "internalType": "bool",
          "name": "",
          "type": "bool"
        }
      ],
      "stateMutability": "view",
      "type": "function",
      "constant": true
    },
    {
      "inputs": [],
      "name": "takeSteel",
      "outputs": [
        {
          "internalType": "uint256",
          "name": "",
          "type": "uint256"
        }
      ],
      "stateMutability": "view",
      "type": "function",
      "constant": true
    },
    {
      "inputs": [
        {
          "internalType": "uint256",
          "name": "",
          "type": "uint256"
        }
      ],
      "name": "uri",
      "outputs": [
        {
          "internalType": "string",
          "name": "",
          "type": "string"
        }
      ],
      "stateMutability": "view",
      "type": "function",
      "constant": true
    }
  ],
  "bytecode": "0x60806040523480156200001157600080fd5b506040518060200160405280600081525062000033816200009c60201b60201c565b50620000653360006c0c9f2c9cd04674edea4000000060405180602001604052806000815250620000b160201b60201c565b620000963360016c0c9f2c9cd04674edea4000000060405180602001604052806000815250620000b160201b60201c565b62000ea7565b8060029081620000ad9190620007c7565b5050565b600073ffffffffffffffffffffffffffffffffffffffff168473ffffffffffffffffffffffffffffffffffffffff160362000123576040517f08c379a00000000000000000000000000000000000000000000000000000000081526004016200011a9062000935565b60405180910390fd5b6000620001356200029860201b60201c565b905060006200014a85620002a060201b60201c565b905060006200015f85620002a060201b60201c565b905062000178836000898585896200032160201b60201c565b8460008088815260200190815260200160002060008973ffffffffffffffffffffffffffffffffffffffff1673ffffffffffffffffffffffffffffffffffffffff1681526020019081526020016000206000828254620001d9919062000986565b925050819055508673ffffffffffffffffffffffffffffffffffffffff16600073ffffffffffffffffffffffffffffffffffffffff168473ffffffffffffffffffffffffffffffffffffffff167fc3d58168c5ae7397731d063d5bbf3d657854427343f4c083240f7aacaa2d0f62898960405162000259929190620009d2565b60405180910390a462000278836000898585896200032960201b60201c565b6200028f836000898989896200033160201b60201c565b50505050505050565b600033905090565b60606000600167ffffffffffffffff811115620002c257620002c162000558565b5b604051908082528060200260200182016040528015620002f15781602001602082028036833780820191505090505b50905082816000815181106200030c576200030b620009ff565b5b60200260200101818152505080915050919050565b505050505050565b505050505050565b6200035d8473ffffffffffffffffffffffffffffffffffffffff166200052a60201b6200076f1760201c565b1562000522578373ffffffffffffffffffffffffffffffffffffffff1663f23a6e6187878686866040518663ffffffff1660e01b8152600401620003a695949392919062000b0d565b6020604051808303816000875af1925050508015620003e557506040513d601f19601f82011682018060405250810190620003e2919062000bdd565b60015b6200049657620003f462000c1c565b806308c379a0036200045757506200040b62000c77565b8062000418575062000459565b806040517f08c379a00000000000000000000000000000000000000000000000000000000081526004016200044e919062000d53565b60405180910390fd5b505b6040517f08c379a00000000000000000000000000000000000000000000000000000000081526004016200048d9062000ded565b60405180910390fd5b63f23a6e6160e01b7bffffffffffffffffffffffffffffffffffffffffffffffffffffffff1916817bffffffffffffffffffffffffffffffffffffffffffffffffffffffff19161462000520576040517f08c379a0000000000000000000000000000000000000000000000000000000008152600401620005179062000e85565b60405180910390fd5b505b505050505050565b6000808273ffffffffffffffffffffffffffffffffffffffff163b119050919050565b600081519050919050565b7f4e487b7100000000000000000000000000000000000000000000000000000000600052604160045260246000fd5b7f4e487b7100000000000000000000000000000000000000000000000000000000600052602260045260246000fd5b60006002820490506001821680620005cf57607f821691505b602082108103620005e557620005e462000587565b5b50919050565b60008190508160005260206000209050919050565b60006020601f8301049050919050565b600082821b905092915050565b6000600883026200064f7fffffffffffffffffffffffffffffffffffffffffffffffffffffffffffffffff8262000610565b6200065b868362000610565b95508019841693508086168417925050509392505050565b6000819050919050565b6000819050919050565b6000620006a8620006a26200069c8462000673565b6200067d565b62000673565b9050919050565b6000819050919050565b620006c48362000687565b620006dc620006d382620006af565b8484546200061d565b825550505050565b600090565b620006f3620006e4565b62000700818484620006b9565b505050565b5b8181101562000728576200071c600082620006e9565b60018101905062000706565b5050565b601f82111562000777576200074181620005eb565b6200074c8462000600565b810160208510156200075c578190505b620007746200076b8562000600565b83018262000705565b50505b505050565b600082821c905092915050565b60006200079c600019846008026200077c565b1980831691505092915050565b6000620007b7838362000789565b9150826002028217905092915050565b620007d2826200054d565b67ffffffffffffffff811115620007ee57620007ed62000558565b5b620007fa8254620005b6565b620008078282856200072c565b600060209050601f8311600181146200083f57600084156200082a578287015190505b620008368582620007a9565b865550620008a6565b601f1984166200084f86620005eb565b60005b82811015620008795784890151825560018201915060208501945060208101905062000852565b8683101562000899578489015162000895601f89168262000789565b8355505b6001600288020188555050505b505050505050565b600082825260208201905092915050565b7f455243313135353a206d696e7420746f20746865207a65726f2061646472657360008201527f7300000000000000000000000000000000000000000000000000000000000000602082015250565b60006200091d602183620008ae565b91506200092a82620008bf565b604082019050919050565b6000602082019050818103600083015262000950816200090e565b9050919050565b7f4e487b7100000000000000000000000000000000000000000000000000000000600052601160045260246000fd5b6000620009938262000673565b9150620009a08362000673565b9250828201905080821115620009bb57620009ba62000957565b5b92915050565b620009cc8162000673565b82525050565b6000604082019050620009e96000830185620009c1565b620009f86020830184620009c1565b9392505050565b7f4e487b7100000000000000000000000000000000000000000000000000000000600052603260045260246000fd5b600073ffffffffffffffffffffffffffffffffffffffff82169050919050565b600062000a5b8262000a2e565b9050919050565b62000a6d8162000a4e565b82525050565b600081519050919050565b600082825260208201905092915050565b60005b8381101562000aaf57808201518184015260208101905062000a92565b60008484015250505050565b6000601f19601f8301169050919050565b600062000ad98262000a73565b62000ae5818562000a7e565b935062000af781856020860162000a8f565b62000b028162000abb565b840191505092915050565b600060a08201905062000b24600083018862000a62565b62000b33602083018762000a62565b62000b426040830186620009c1565b62000b516060830185620009c1565b818103608083015262000b65818462000acc565b90509695505050505050565b6000604051905090565b600080fd5b60007fffffffff0000000000000000000000000000000000000000000000000000000082169050919050565b62000bb78162000b80565b811462000bc357600080fd5b50565b60008151905062000bd78162000bac565b92915050565b60006020828403121562000bf65762000bf562000b7b565b5b600062000c068482850162000bc6565b91505092915050565b60008160e01c9050919050565b600060033d111562000c3e5760046000803e62000c3b60005162000c0f565b90505b90565b62000c4c8262000abb565b810181811067ffffffffffffffff8211171562000c6e5762000c6d62000558565b5b80604052505050565b600060443d1062000d0f5762000c8c62000b71565b60043d036004823e80513d602482011167ffffffffffffffff8211171562000cb657505062000d0f565b808201805167ffffffffffffffff81111562000cd6575050505062000d0f565b80602083010160043d03850181111562000cf557505050505062000d0f565b62000d068260200185018662000c41565b82955050505050505b90565b600062000d1f826200054d565b62000d2b8185620008ae565b935062000d3d81856020860162000a8f565b62000d488162000abb565b840191505092915050565b6000602082019050818103600083015262000d6f818462000d12565b905092915050565b7f455243313135353a207472616e7366657220746f206e6f6e2d4552433131353560008201527f526563656976657220696d706c656d656e746572000000000000000000000000602082015250565b600062000dd5603483620008ae565b915062000de28262000d77565b604082019050919050565b6000602082019050818103600083015262000e088162000dc6565b9050919050565b7f455243313135353a204552433131353552656365697665722072656a6563746560008201527f6420746f6b656e73000000000000000000000000000000000000000000000000602082015250565b600062000e6d602883620008ae565b915062000e7a8262000e0f565b604082019050919050565b6000602082019050818103600083015262000ea08162000e5e565b9050919050565b6125538062000eb76000396000f3fe608060405234801561001057600080fd5b506004361061009d5760003560e01c8063a22cb46511610066578063a22cb4651461017e578063b658ef131461019a578063e985e9c5146101b8578063edcaf0d4146101e8578063f242432a146102065761009d565b8062fdd58e146100a257806301ffc9a7146100d25780630e89341c146101025780632eb2c2d6146101325780634e1273f41461014e575b600080fd5b6100bc60048036038101906100b7919061140c565b610222565b6040516100c9919061145b565b60405180910390f35b6100ec60048036038101906100e791906114ce565b6102ea565b6040516100f99190611516565b60405180910390f35b61011c60048036038101906101179190611531565b6103cc565b60405161012991906115ee565b60405180910390f35b61014c6004803603810190610147919061180d565b610460565b005b6101686004803603810190610163919061199f565b610501565b6040516101759190611ad5565b60405180910390f35b61019860048036038101906101939190611b23565b61061a565b005b6101a2610630565b6040516101af919061145b565b60405180910390f35b6101d260048036038101906101cd9190611b63565b610635565b6040516101df9190611516565b60405180910390f35b6101f06106c9565b6040516101fd919061145b565b60405180910390f35b610220600480360381019061021b9190611ba3565b6106ce565b005b60008073ffffffffffffffffffffffffffffffffffffffff168373ffffffffffffffffffffffffffffffffffffffff1603610292576040517f08c379a000000000000000000000000000000000000000000000000000000000815260040161028990611cac565b60405180910390fd5b60008083815260200190815260200160002060008473ffffffffffffffffffffffffffffffffffffffff1673ffffffffffffffffffffffffffffffffffffffff16815260200190815260200160002054905092915050565b60007fd9b67a26000000000000000000000000000000000000000000000000000000007bffffffffffffffffffffffffffffffffffffffffffffffffffffffff1916827bffffffffffffffffffffffffffffffffffffffffffffffffffffffff191614806103b557507f0e89341c000000000000000000000000000000000000000000000000000000007bffffffffffffffffffffffffffffffffffffffffffffffffffffffff1916827bffffffffffffffffffffffffffffffffffffffffffffffffffffffff1916145b806103c557506103c482610792565b5b9050919050565b6060600280546103db90611cfb565b80601f016020809104026020016040519081016040528092919081815260200182805461040790611cfb565b80156104545780601f1061042957610100808354040283529160200191610454565b820191906000526020600020905b81548152906001019060200180831161043757829003601f168201915b50505050509050919050565b6104686107fc565b73ffffffffffffffffffffffffffffffffffffffff168573ffffffffffffffffffffffffffffffffffffffff1614806104ae57506104ad856104a86107fc565b610635565b5b6104ed576040517f08c379a00000000000000000000000000000000000000000000000000000000081526004016104e490611d9e565b60405180910390fd5b6104fa8585858585610804565b5050505050565b60608151835114610547576040517f08c379a000000000000000000000000000000000000000000000000000000000815260040161053e90611e30565b60405180910390fd5b6000835167ffffffffffffffff81111561056457610563611615565b5b6040519080825280602002602001820160405280156105925781602001602082028036833780820191505090505b50905060005b845181101561060f576105df8582815181106105b7576105b6611e50565b5b60200260200101518583815181106105d2576105d1611e50565b5b6020026020010151610222565b8282815181106105f2576105f1611e50565b5b6020026020010181815250508061060890611eae565b9050610598565b508091505092915050565b61062c6106256107fc565b8383610b25565b5050565b600081565b6000600160008473ffffffffffffffffffffffffffffffffffffffff1673ffffffffffffffffffffffffffffffffffffffff16815260200190815260200160002060008373ffffffffffffffffffffffffffffffffffffffff1673ffffffffffffffffffffffffffffffffffffffff16815260200190815260200160002060009054906101000a900460ff16905092915050565b600181565b6106d66107fc565b73ffffffffffffffffffffffffffffffffffffffff168573ffffffffffffffffffffffffffffffffffffffff16148061071c575061071b856107166107fc565b610635565b5b61075b576040517f08c379a000000000000000000000000000000000000000000000000000000000815260040161075290611d9e565b60405180910390fd5b6107688585858585610c91565b5050505050565b6000808273ffffffffffffffffffffffffffffffffffffffff163b119050919050565b60007f01ffc9a7000000000000000000000000000000000000000000000000000000007bffffffffffffffffffffffffffffffffffffffffffffffffffffffff1916827bffffffffffffffffffffffffffffffffffffffffffffffffffffffff1916149050919050565b600033905090565b8151835114610848576040517f08c379a000000000000000000000000000000000000000000000000000000000815260040161083f90611f68565b60405180910390fd5b600073ffffffffffffffffffffffffffffffffffffffff168473ffffffffffffffffffffffffffffffffffffffff16036108b7576040517f08c379a00000000000000000000000000000000000000000000000000000000081526004016108ae90611ffa565b60405180910390fd5b60006108c16107fc565b90506108d1818787878787610f2c565b60005b8451811015610a825760008582815181106108f2576108f1611e50565b5b60200260200101519050600085838151811061091157610910611e50565b5b60200260200101519050600080600084815260200190815260200160002060008b73ffffffffffffffffffffffffffffffffffffffff1673ffffffffffffffffffffffffffffffffffffffff168152602001908152602001600020549050818110156109b2576040517f08c379a00000000000000000000000000000000000000000000000000000000081526004016109a99061208c565b60405180910390fd5b81810360008085815260200190815260200160002060008c73ffffffffffffffffffffffffffffffffffffffff1673ffffffffffffffffffffffffffffffffffffffff168152602001908152602001600020819055508160008085815260200190815260200160002060008b73ffffffffffffffffffffffffffffffffffffffff1673ffffffffffffffffffffffffffffffffffffffff1681526020019081526020016000206000828254610a6791906120ac565b9250508190555050505080610a7b90611eae565b90506108d4565b508473ffffffffffffffffffffffffffffffffffffffff168673ffffffffffffffffffffffffffffffffffffffff168273ffffffffffffffffffffffffffffffffffffffff167f4a39dc06d4c0dbc64b70af90fd698a233a518aa5d07e595d983b8c0526c8f7fb8787604051610af99291906120e0565b60405180910390a4610b0f818787878787610f34565b610b1d818787878787610f3c565b505050505050565b8173ffffffffffffffffffffffffffffffffffffffff168373ffffffffffffffffffffffffffffffffffffffff1603610b93576040517f08c379a0000000000000000000000000000000000000000000000000000000008152600401610b8a90612189565b60405180910390fd5b80600160008573ffffffffffffffffffffffffffffffffffffffff1673ffffffffffffffffffffffffffffffffffffffff16815260200190815260200160002060008473ffffffffffffffffffffffffffffffffffffffff1673ffffffffffffffffffffffffffffffffffffffff16815260200190815260200160002060006101000a81548160ff0219169083151502179055508173ffffffffffffffffffffffffffffffffffffffff168373ffffffffffffffffffffffffffffffffffffffff167f17307eab39ab6107e8899845ad3d59bd9653f200f220920489ca2b5937696c3183604051610c849190611516565b60405180910390a3505050565b600073ffffffffffffffffffffffffffffffffffffffff168473ffffffffffffffffffffffffffffffffffffffff1603610d00576040517f08c379a0000000000000000000000000000000000000000000000000000000008152600401610cf790611ffa565b60405180910390fd5b6000610d0a6107fc565b90506000610d1785611113565b90506000610d2485611113565b9050610d34838989858589610f2c565b600080600088815260200190815260200160002060008a73ffffffffffffffffffffffffffffffffffffffff1673ffffffffffffffffffffffffffffffffffffffff16815260200190815260200160002054905085811015610dcb576040517f08c379a0000000000000000000000000000000000000000000000000000000008152600401610dc29061208c565b60405180910390fd5b85810360008089815260200190815260200160002060008b73ffffffffffffffffffffffffffffffffffffffff1673ffffffffffffffffffffffffffffffffffffffff168152602001908152602001600020819055508560008089815260200190815260200160002060008a73ffffffffffffffffffffffffffffffffffffffff1673ffffffffffffffffffffffffffffffffffffffff1681526020019081526020016000206000828254610e8091906120ac565b925050819055508773ffffffffffffffffffffffffffffffffffffffff168973ffffffffffffffffffffffffffffffffffffffff168573ffffffffffffffffffffffffffffffffffffffff167fc3d58168c5ae7397731d063d5bbf3d657854427343f4c083240f7aacaa2d0f628a8a604051610efd9291906121a9565b60405180910390a4610f13848a8a86868a610f34565b610f21848a8a8a8a8a61118d565b505050505050505050565b505050505050565b505050505050565b610f5b8473ffffffffffffffffffffffffffffffffffffffff1661076f565b1561110b578373ffffffffffffffffffffffffffffffffffffffff1663bc197c8187878686866040518663ffffffff1660e01b8152600401610fa1959493929190612236565b6020604051808303816000875af1925050508015610fdd57506040513d601f19601f82011682018060405250810190610fda91906122b3565b60015b61108257610fe96122ed565b806308c379a0036110455750610ffd61230f565b806110085750611047565b806040517f08c379a000000000000000000000000000000000000000000000000000000000815260040161103c91906115ee565b60405180910390fd5b505b6040517f08c379a000000000000000000000000000000000000000000000000000000000815260040161107990612411565b60405180910390fd5b63bc197c8160e01b7bffffffffffffffffffffffffffffffffffffffffffffffffffffffff1916817bffffffffffffffffffffffffffffffffffffffffffffffffffffffff191614611109576040517f08c379a0000000000000000000000000000000000000000000000000000000008152600401611100906124a3565b60405180910390fd5b505b505050505050565b60606000600167ffffffffffffffff81111561113257611131611615565b5b6040519080825280602002602001820160405280156111605781602001602082028036833780820191505090505b509050828160008151811061117857611177611e50565b5b60200260200101818152505080915050919050565b6111ac8473ffffffffffffffffffffffffffffffffffffffff1661076f565b1561135c578373ffffffffffffffffffffffffffffffffffffffff1663f23a6e6187878686866040518663ffffffff1660e01b81526004016111f29594939291906124c3565b6020604051808303816000875af192505050801561122e57506040513d601f19601f8201168201806040525081019061122b91906122b3565b60015b6112d35761123a6122ed565b806308c379a003611296575061124e61230f565b806112595750611298565b806040517f08c379a000000000000000000000000000000000000000000000000000000000815260040161128d91906115ee565b60405180910390fd5b505b6040517f08c379a00000000000000000000000000000000000000000000000000000000081526004016112ca90612411565b60405180910390fd5b63f23a6e6160e01b7bffffffffffffffffffffffffffffffffffffffffffffffffffffffff1916817bffffffffffffffffffffffffffffffffffffffffffffffffffffffff19161461135a576040517f08c379a0000000000000000000000000000000000000000000000000000000008152600401611351906124a3565b60405180910390fd5b505b505050505050565b6000604051905090565b600080fd5b600080fd5b600073ffffffffffffffffffffffffffffffffffffffff82169050919050565b60006113a382611378565b9050919050565b6113b381611398565b81146113be57600080fd5b50565b6000813590506113d0816113aa565b92915050565b6000819050919050565b6113e9816113d6565b81146113f457600080fd5b50565b600081359050611406816113e0565b92915050565b600080604083850312156114235761142261136e565b5b6000611431858286016113c1565b9250506020611442858286016113f7565b9150509250929050565b611455816113d6565b82525050565b6000602082019050611470600083018461144c565b92915050565b60007fffffffff0000000000000000000000000000000000000000000000000000000082169050919050565b6114ab81611476565b81146114b657600080fd5b50565b6000813590506114c8816114a2565b92915050565b6000602082840312156114e4576114e361136e565b5b60006114f2848285016114b9565b91505092915050565b60008115159050919050565b611510816114fb565b82525050565b600060208201905061152b6000830184611507565b92915050565b6000602082840312156115475761154661136e565b5b6000611555848285016113f7565b91505092915050565b600081519050919050565b600082825260208201905092915050565b60005b8381101561159857808201518184015260208101905061157d565b60008484015250505050565b6000601f19601f8301169050919050565b60006115c08261155e565b6115ca8185611569565b93506115da81856020860161157a565b6115e3816115a4565b840191505092915050565b6000602082019050818103600083015261160881846115b5565b905092915050565b600080fd5b7f4e487b7100000000000000000000000000000000000000000000000000000000600052604160045260246000fd5b61164d826115a4565b810181811067ffffffffffffffff8211171561166c5761166b611615565b5b80604052505050565b600061167f611364565b905061168b8282611644565b919050565b600067ffffffffffffffff8211156116ab576116aa611615565b5b602082029050602081019050919050565b600080fd5b60006116d46116cf84611690565b611675565b905080838252602082019050602084028301858111156116f7576116f66116bc565b5b835b81811015611720578061170c88826113f7565b8452602084019350506020810190506116f9565b5050509392505050565b600082601f83011261173f5761173e611610565b5b813561174f8482602086016116c1565b91505092915050565b600080fd5b600067ffffffffffffffff82111561177857611777611615565b5b611781826115a4565b9050602081019050919050565b82818337600083830152505050565b60006117b06117ab8461175d565b611675565b9050828152602081018484840111156117cc576117cb611758565b5b6117d784828561178e565b509392505050565b600082601f8301126117f4576117f3611610565b5b813561180484826020860161179d565b91505092915050565b600080600080600060a086880312156118295761182861136e565b5b6000611837888289016113c1565b9550506020611848888289016113c1565b945050604086013567ffffffffffffffff81111561186957611868611373565b5b6118758882890161172a565b935050606086013567ffffffffffffffff81111561189657611895611373565b5b6118a28882890161172a565b925050608086013567ffffffffffffffff8111156118c3576118c2611373565b5b6118cf888289016117df565b9150509295509295909350565b600067ffffffffffffffff8211156118f7576118f6611615565b5b602082029050602081019050919050565b600061191b611916846118dc565b611675565b9050808382526020820190506020840283018581111561193e5761193d6116bc565b5b835b81811015611967578061195388826113c1565b845260208401935050602081019050611940565b5050509392505050565b600082601f83011261198657611985611610565b5b8135611996848260208601611908565b91505092915050565b600080604083850312156119b6576119b561136e565b5b600083013567ffffffffffffffff8111156119d4576119d3611373565b5b6119e085828601611971565b925050602083013567ffffffffffffffff811115611a0157611a00611373565b5b611a0d8582860161172a565b9150509250929050565b600081519050919050565b600082825260208201905092915050565b6000819050602082019050919050565b611a4c816113d6565b82525050565b6000611a5e8383611a43565b60208301905092915050565b6000602082019050919050565b6000611a8282611a17565b611a8c8185611a22565b9350611a9783611a33565b8060005b83811015611ac8578151611aaf8882611a52565b9750611aba83611a6a565b925050600181019050611a9b565b5085935050505092915050565b60006020820190508181036000830152611aef8184611a77565b905092915050565b611b00816114fb565b8114611b0b57600080fd5b50565b600081359050611b1d81611af7565b92915050565b60008060408385031215611b3a57611b3961136e565b5b6000611b48858286016113c1565b9250506020611b5985828601611b0e565b9150509250929050565b60008060408385031215611b7a57611b7961136e565b5b6000611b88858286016113c1565b9250506020611b99858286016113c1565b9150509250929050565b600080600080600060a08688031215611bbf57611bbe61136e565b5b6000611bcd888289016113c1565b9550506020611bde888289016113c1565b9450506040611bef888289016113f7565b9350506060611c00888289016113f7565b925050608086013567ffffffffffffffff811115611c2157611c20611373565b5b611c2d888289016117df565b9150509295509295909350565b7f455243313135353a2061646472657373207a65726f206973206e6f742061207660008201527f616c6964206f776e657200000000000000000000000000000000000000000000602082015250565b6000611c96602a83611569565b9150611ca182611c3a565b604082019050919050565b60006020820190508181036000830152611cc581611c89565b9050919050565b7f4e487b7100000000000000000000000000000000000000000000000000000000600052602260045260246000fd5b60006002820490506001821680611d1357607f821691505b602082108103611d2657611d25611ccc565b5b50919050565b7f455243313135353a2063616c6c6572206973206e6f7420746f6b656e206f776e60008201527f6572206f7220617070726f766564000000000000000000000000000000000000602082015250565b6000611d88602e83611569565b9150611d9382611d2c565b604082019050919050565b60006020820190508181036000830152611db781611d7b565b9050919050565b7f455243313135353a206163636f756e747320616e6420696473206c656e67746860008201527f206d69736d617463680000000000000000000000000000000000000000000000602082015250565b6000611e1a602983611569565b9150611e2582611dbe565b604082019050919050565b60006020820190508181036000830152611e4981611e0d565b9050919050565b7f4e487b7100000000000000000000000000000000000000000000000000000000600052603260045260246000fd5b7f4e487b7100000000000000000000000000000000000000000000000000000000600052601160045260246000fd5b6000611eb9826113d6565b91507fffffffffffffffffffffffffffffffffffffffffffffffffffffffffffffffff8203611eeb57611eea611e7f565b5b600182019050919050565b7f455243313135353a2069647320616e6420616d6f756e7473206c656e6774682060008201527f6d69736d61746368000000000000000000000000000000000000000000000000602082015250565b6000611f52602883611569565b9150611f5d82611ef6565b604082019050919050565b60006020820190508181036000830152611f8181611f45565b9050919050565b7f455243313135353a207472616e7366657220746f20746865207a65726f20616460008201527f6472657373000000000000000000000000000000000000000000000000000000602082015250565b6000611fe4602583611569565b9150611fef82611f88565b604082019050919050565b6000602082019050818103600083015261201381611fd7565b9050919050565b7f455243313135353a20696e73756666696369656e742062616c616e636520666f60008201527f72207472616e7366657200000000000000000000000000000000000000000000602082015250565b6000612076602a83611569565b91506120818261201a565b604082019050919050565b600060208201905081810360008301526120a581612069565b9050919050565b60006120b7826113d6565b91506120c2836113d6565b92508282019050808211156120da576120d9611e7f565b5b92915050565b600060408201905081810360008301526120fa8185611a77565b9050818103602083015261210e8184611a77565b90509392505050565b7f455243313135353a2073657474696e6720617070726f76616c2073746174757360008201527f20666f722073656c660000000000000000000000000000000000000000000000602082015250565b6000612173602983611569565b915061217e82612117565b604082019050919050565b600060208201905081810360008301526121a281612166565b9050919050565b60006040820190506121be600083018561144c565b6121cb602083018461144c565b9392505050565b6121db81611398565b82525050565b600081519050919050565b600082825260208201905092915050565b6000612208826121e1565b61221281856121ec565b935061222281856020860161157a565b61222b816115a4565b840191505092915050565b600060a08201905061224b60008301886121d2565b61225860208301876121d2565b818103604083015261226a8186611a77565b9050818103606083015261227e8185611a77565b9050818103608083015261229281846121fd565b90509695505050505050565b6000815190506122ad816114a2565b92915050565b6000602082840312156122c9576122c861136e565b5b60006122d78482850161229e565b91505092915050565b60008160e01c9050919050565b600060033d111561230c5760046000803e6123096000516122e0565b90505b90565b600060443d1061239c57612321611364565b60043d036004823e80513d602482011167ffffffffffffffff8211171561234957505061239c565b808201805167ffffffffffffffff811115612367575050505061239c565b80602083010160043d03850181111561238457505050505061239c565b61239382602001850186611644565b82955050505050505b90565b7f455243313135353a207472616e7366657220746f206e6f6e2d4552433131353560008201527f526563656976657220696d706c656d656e746572000000000000000000000000602082015250565b60006123fb603483611569565b91506124068261239f565b604082019050919050565b6000602082019050818103600083015261242a816123ee565b9050919050565b7f455243313135353a204552433131353552656365697665722072656a6563746560008201527f6420746f6b656e73000000000000000000000000000000000000000000000000602082015250565b600061248d602883611569565b915061249882612431565b604082019050919050565b600060208201905081810360008301526124bc81612480565b9050919050565b600060a0820190506124d860008301886121d2565b6124e560208301876121d2565b6124f2604083018661144c565b6124ff606083018561144c565b818103608083015261251181846121fd565b9050969550505050505056fea26469706673582212204be6b67ece4d395593a4abefe0526a4fa6fedb6ba57b28eeb1ccd2a1a12cbeb664736f6c63430008110033",
  "immutableReferences": {},
  "source": "pragma solidity ^0.8.4;\r\n\r\nimport \"@openzeppelin/contracts/token/ERC1155/ERC1155.sol\";\r\n\r\n// interface IERC1155 is ERC1155 {\r\n//     event TransferSingle\r\n//     (address indexed _from, address indexed _to, uint256 _id, uint256 _value);\r\n//     event TransferBatch\r\n//     (address indexed _from, address indexed _to, uint256[] _ids, uint256[] _values);\r\n\r\n//     function safeTransferFrom(address _from, address _to, uint256 _id, uint256 _value, bytes calldata _data) external;\r\n//     function safeBatchTransferFrom(address _from, address _to, uint256[] calldata _ids, uint256[] calldata _values, bytes calldata _data) external;\r\n//     function balanceOf(address _owner, uint256 _id) external view returns (uint256);\r\n// }\r\n\r\ncontract Shepherd is ERC1155 {\r\n    uint256 public constant sendSteel = 0;\r\n    uint256 public constant takeSteel = 1;\r\n\r\n    constructor() public ERC1155(\"\") {\r\n        _mint(msg.sender, sendSteel, 10**30, \"\");\r\n        _mint(msg.sender, takeSteel, 10**30, \"\");\r\n    }\r\n}",
  "sourcePath": "C:\\Users\\Heein\\Documents\\BEB_06_Codestates\\BEB-06-STEEL-TRACKER\\contract\\contracts\\Shepherd.sol",
  "compiler": {
    "name": "solc",
    "version": "0.8.17+commit.8df45f5f.Emscripten.clang"
  },
  "schemaVersion": "3.4.10",
  "updatedAt": "2022-12-02T06:48:26.777Z",
  "networkType": "ethereum",
  "devdoc": {
    "kind": "dev",
    "methods": {
      "balanceOf(address,uint256)": {
        "details": "See {IERC1155-balanceOf}. Requirements: - `account` cannot be the zero address."
      },
      "balanceOfBatch(address[],uint256[])": {
        "details": "See {IERC1155-balanceOfBatch}. Requirements: - `accounts` and `ids` must have the same length."
      },
      "isApprovedForAll(address,address)": {
        "details": "See {IERC1155-isApprovedForAll}."
      },
      "safeBatchTransferFrom(address,address,uint256[],uint256[],bytes)": {
        "details": "See {IERC1155-safeBatchTransferFrom}."
      },
      "safeTransferFrom(address,address,uint256,uint256,bytes)": {
        "details": "See {IERC1155-safeTransferFrom}."
      },
      "setApprovalForAll(address,bool)": {
        "details": "See {IERC1155-setApprovalForAll}."
      },
      "supportsInterface(bytes4)": {
        "details": "See {IERC165-supportsInterface}."
      },
      "uri(uint256)": {
        "details": "See {IERC1155MetadataURI-uri}. This implementation returns the same URI for *all* token types. It relies on the token type ID substitution mechanism https://eips.ethereum.org/EIPS/eip-1155#metadata[defined in the EIP]. Clients calling this function must replace the `\\{id\\}` substring with the actual token type ID."
      }
    },
    "version": 1
  },
  "userdoc": {
    "kind": "user",
    "methods": {},
    "version": 1
  }
}